:100000000C94F0000C9411010C9411010C9411014A
:100010000C9411010C9411010C9411010C94110118
:100020000C9411010C9411010C9411010C94110108
:100030000C9411010C9411010C9411010C941101F8
:100040000C9411010C9411010C9411010C941101E8
:100050000C9411010C9411010C9411010C941101D8
:100060000C9411010C9411010C9411010C941101C8
:100070000C9411010C9411010C9411010C941101B8
:100080000C9411010C9411010C9411010C941101A8
:100090000C9411010C9411010C9411010C94110198
:1000A0000C9411010C9411010C9411010C94110188
:1000B0000C9411010C9411010C9411010C94110178
:1000C0000C9411010C9411010C9411010C94110168
:1000D0000C9411010C9411010C9411010C94110158
:1000E0000C9411010C9411010C9411010C94110148
:1000F0000C9411010C9411010C9411010C94110138
:100100000C9411010C9411010C9411010C94110127
:100110000C9411010C9411010C9411010C94110117
:100120000C9411010C9411010C9411010C94110107
:100130000C9411010C9411010C9411010C941101F7
:100140000C9411010C9411010C9411010C941101E7
:100150000C9411010C9411010C9411010C941101D7
:100160000C9411010C9411010C9411010C941101C7
:100170000C9411010C9411010C9411010C941101B7
:100180000C9411010C9411010C9411010C941101A7
:100190000C9411010C9411010C9411010C94110197
:1001A0000C9411010C9411010C9411010C94110187
:1001B0000C9411010C9411010C9411010C94110177
:1001C0000C9411010C9411010C940D020C94D802A2
:1001D0000C9409020C9413010C94EC020C9415017C
:1001E00011241FBECFEFCDBFDFE3DEBF00E00CBFA9
:1001F00010E2A0E0B0E2E4EFF9E000E00BBF02C0E3
:1002000007900D92A031B107D9F720E2A0E1B0E24A
:1002100001C01D92A237B207E1F70E94D7040C94E7
:10022000F8040C94000080E008952F923F924F92C2
:100230005F926F927F928F929F92AF92BF92CF9276
:10024000DF92EF92FF920F931F93CF93DF93CDB77F
:10025000DEB7A297CDBFDEBF7C015C018E01055FDA
:100260001F4F09A31AA3FE013696ED8FFE8F0A5089
:100270001109AC014B5F5F4FCF0129A13AA1F701F2
:100280006191D9016D939D016481DC016D93CD0174
:100290006185D8016D938D01E417F50789F7B1E009
:1002A000B09305063B844E805C846F807D84088516
:1002B0001E85B985FF85EA852980288A8A80898AF2
:1002C0009B809A8ACC80CB8ADD80DC8A3F8E48A2D4
:1002D000598E6A8E7B8E0C8F1D8BBE8BFF8BE88FA9
:1002E000432D4095552D5423662D6423742D75217F
:1002F000862D842162257225562778279F2FAE2FC1
:100300009527A727452D4095572D5423602F64230B
:10031000762D7721802F8621682578255627782706
:10032000232D342D25273727472D4095512F542332
:100330006B2F6423702F71238B2F802369257925E0
:100340005627782755266726412F40955F2F54233F
:100350006E2F64237B2F7F238E2F8B236C257C2590
:100360005627782775260727F095532D5F23642D90
:100370006F237E2F7321842D8E236D257D25562797
:1003800078271527B727322E432EF92FEA2F3B86E1
:100390004E825C866F827D8608871E87B987FF87BD
:1003A000EA8701E000930606CE014096E9A1FAA192
:1003B0002191E9A3FAA3D5012D935D01ED8DFE8D69
:1003C0002191ED8FFE8F14962C93149719961C9201
:1003D00029A03AA02816390649F7A70160E182E76B
:1003E0000E94A30280E0A296CDBFDEBFDF91CF9135
:1003F0001F910F91FF90EF90DF90CF90BF90AF9043
:100400009F908F907F906F905F904F903F902F9034
:10041000089580E0089580E0089581E00895FC014A
:1004200080E096EA615070F02191822728E030E068
:1004300087FF03C0880F892701C0880F2150310929
:10044000B9F7F0CF0895DB01FA019F01241B350BAA
:1004500028173907D4F52C9111963C91119760ED2E
:10046000630F6A3010F460830FC06FEB630F663068
:1004700010F4375308C06FE9630F663018F081E05D
:1004800090E008953755308330ED320F3A3018F44C
:100490002295207F14C03FEB320F363020F430E03D
:1004A0002753310907C03FE9320F363040F730E0BB
:1004B0002755310964E0220F331F6A95E1F7308137
:1004C000232B208331961296C0CF80E090E00895D0
:1004D000A0917020B0917120A031B105CCF4603CA6
:1004E0007105B0F496E09A9FF0019B9FF00D1124E6
:1004F000E05FFF4D80836183728343835483258350
:100500001196A0937020B093712080E090E0089540
:1005100081E090E0089520E00C9468024DE052E004
:1005200060E070E086E70E948B024CEE52E060E0F3
:1005300070E087E70E948B0248ED52E060E070E0D7
:1005400089E70C948B02CF92DF92EF92FF920F9388
:100550001F93CF93DF93C62F8A010E942D04780149
:10056000D0E0C701801B910B8C179D07B4F4670185
:10057000D701ED917D01E295EF70F0E0E050F04E93
:1005800080810E942D04D601EC91EF70F0E0E050E4
:10059000F04E80810E942D04E4CF8AE0DF91CF915C
:1005A0001F910F91FF90EF90DF90CF900C942D044E
:1005B000CF93DF931F92CDB7DEB7809170208983F0
:1005C000AE014F5F5F4F61E082E70E94A30280E0CF
:1005D0000F90DF91CF910895CF93DF93CDB7DEB722
:1005E000E097CDBFDEBF6091702070917120AB01AC
:1005F000552720E036E0822F90E084179507ECF431
:10060000FC01EE0FFF1FE80FF91FA1E0B0E0AC0FF7
:10061000BD1FEA0FFB1F389FD001399FB00D112479
:10062000A05FBF4D8C91808311968C91119781832F
:1006300015968C9182832F5FDECF862F880F680FEF
:10064000AE014F5F5F4F82E70E94A30280E0E09619
:10065000CDBFDEBFDF91CF910895AF92BF92CF9211
:10066000DF92EF92FF920F931F93CF93DF93CDB75B
:10067000DEB7C154D240CDBFDEBF0E9426044091F8
:1006800070205091712020E130E200E010E004176A
:100690001507ECF42A5F3F4FF901369790818913D3
:1006A00013C026E0209FC001219F900D11249C01C2
:1006B000205F3F4D6901D90115968C91FE0131965D
:1006C0007F0180FF2AC008C00F5F1F4FE0CF0417D3
:1006D000150709F476C0E5CFCF57DE4F1882C15811
:1006E000D1400E94260489830E9426048A83AE0199
:1006F0004F575E4FB70181E090E00E942302892BA3
:1007000009F05FC0CF57DE4F8881C158D14090E0DB
:10071000D60111968D939C931297670126E0209F36
:10072000C001219F900D1124FC01EF5EFF4D5F0180
:10073000F50180819181880F991F96012E193F093B
:100740002817390750F40E9426048A30D1F18D30E1
:10075000C1F1D6018D936D01EBCF0E9426048A3042
:1007600011F08D3071F526E0209FC001219F900D82
:1007700011248C01005F1F4DD8011196DC90119758
:10078000AE014F575E4FB7018D2D12969C910E947E
:100790002302892BB1F4D8011396ED91FC911497A3
:1007A0006D2DCE018F579E4F1995CF5BDD4F8883FE
:1007B000C154D240AE014F5B5D4F61E08AE70E94B9
:1007C000A302CF5BDD4FCDBFDEBFDF91CF911F9185
:1007D0000F91FF90EF90DF90CF90BF90AF90089572
:1007E000E0E4F6E088E0818384E08283E0EAF8E0F8
:1007F00083E085838BE08683178284818061848394
:100800008481886084830895CF93DF931F921F9221
:10081000CDB7DEB769837A8320E030E049815A8121
:100820002417350769F04091A10847FF06C02091C1
:10083000A008FC01208381E004C02F5F3F4FEECF72
:1008400080E00F900F90DF91CF9108958091A108E3
:1008500087FFFCCF8091A00808959091A10895FF93
:10086000FCCF8093A0080895FC01608371834283CC
:1008700014861386168615860895FC0162830895F2
:10088000FC01958526859F5F937081E0921301C0DE
:1008900080E008951F93CF93DF93EC01162F0E9401
:1008A0004004882379F09D85FE01E90FF11D17832F
:1008B0009F5F93709D87E881F98193819C7F2A8156
:1008C000922B9383DF91CF911F910895FC01238593
:1008D000948581E0291301C080E00895FC0184859E
:1008E000DF01A80FB11D13968C9194859F5F9370C3
:1008F00094870895FC0183858F5F83702485A08190
:10090000B1819C91821749F02385DF01A20FB11DAF
:1009100013969C93838781E0089580E00895CF9398
:10092000DF93FC0196858585A081B181981307C06E
:1009300013968C9113978C7F13968C930AC086859F
:10094000EF01C80FD11D8F818C9386858F5F8370D7
:100950008687DF91CF910895FC01848170FF02C0EA
:10096000816001C08E7F848360830895FC0184814F
:1009700080FF04C0808190E091600895808190E0C4
:100980000895109252001092550080915000886096
:10099000809350008091510083FFFCCF88ED84BF8D
:1009A00083E08093400088E08093500008950E9487
:1009B000C1040E94F00381E0809301060E948E0230
:1009C00049E052E060E170E08BE60E948B0245E175
:1009D00051E060E170E080E70E948B0243E151E06A
:1009E00060E070E088E70E948B020E942D03FDCF3B
:0409F000F894FFCFA9
:1009F4003031323334353637383941424344454651
:00000001FF
